{"abi":[{"type":"function","name":"recordAlert","inputs":[{"name":"from","type":"address","internalType":"address"},{"name":"to","type":"address","internalType":"address"},{"name":"amount","type":"uint256","internalType":"uint256"},{"name":"blockNumber","type":"uint256","internalType":"uint256"}],"outputs":[],"stateMutability":"nonpayable"},{"type":"event","name":"AlertRecorded","inputs":[{"name":"from","type":"address","indexed":true,"internalType":"address"},{"name":"to","type":"address","indexed":true,"internalType":"address"},{"name":"amount","type":"uint256","indexed":false,"internalType":"uint256"},{"name":"blockNumber","type":"uint256","indexed":false,"internalType":"uint256"}],"anonymous":false}],"bytecode":{"object":"0x6080604052348015600e575f5ffd5b506102178061001c5f395ff3fe608060405234801561000f575f5ffd5b5060043610610029575f3560e01c8063065779761461002d575b5f5ffd5b61004760048036038101906100429190610147565b610049565b005b8273ffffffffffffffffffffffffffffffffffffffff168473ffffffffffffffffffffffffffffffffffffffff167fd9c9c5f833f739f082bac1679e6293380d975ed0d453e46e4557a368803f178884846040516100a89291906101ba565b60405180910390a350505050565b5f5ffd5b5f73ffffffffffffffffffffffffffffffffffffffff82169050919050565b5f6100e3826100ba565b9050919050565b6100f3816100d9565b81146100fd575f5ffd5b50565b5f8135905061010e816100ea565b92915050565b5f819050919050565b61012681610114565b8114610130575f5ffd5b50565b5f813590506101418161011d565b92915050565b5f5f5f5f6080858703121561015f5761015e6100b6565b5b5f61016c87828801610100565b945050602061017d87828801610100565b935050604061018e87828801610133565b925050606061019f87828801610133565b91505092959194509250565b6101b481610114565b82525050565b5f6040820190506101cd5f8301856101ab565b6101da60208301846101ab565b939250505056fea26469706673582212205adeb4835afb5887dcfe12af43bf879cea8574845747857a32f0a97031a5258264736f6c634300081e0033","linkReferences":{}},"methodIdentifiers":{"recordAlert(address,address,uint256,uint256)":"06577976"},"id":22}