{"abi":[{"type":"function","name":"getAlert","inputs":[{"name":"addr","type":"address","internalType":"address"}],"outputs":[{"name":"from","type":"address","internalType":"address"},{"name":"to","type":"address","internalType":"address"},{"name":"amount","type":"uint256","internalType":"uint256"},{"name":"timestamp","type":"uint256","internalType":"uint256"},{"name":"isActive","type":"bool","internalType":"bool"}],"stateMutability":"view"},{"type":"function","name":"recordBigTransfer","inputs":[{"name":"from","type":"address","internalType":"address"},{"name":"to","type":"address","internalType":"address"},{"name":"amount","type":"uint256","internalType":"uint256"}],"outputs":[],"stateMutability":"nonpayable"},{"type":"event","name":"BigTransferRecorded","inputs":[{"name":"from","type":"address","indexed":true,"internalType":"address"},{"name":"to","type":"address","indexed":true,"internalType":"address"},{"name":"amount","type":"uint256","indexed":false,"internalType":"uint256"},{"name":"timestamp","type":"uint256","indexed":false,"internalType":"uint256"}],"anonymous":false}],"bytecode":{"object":"0x6080604052348015600e575f5ffd5b506104f28061001c5f395ff3fe608060405234801561000f575f5ffd5b5060043610610034575f3560e01c80631ae3342c14610038578063f575576514610054575b5f5ffd5b610052600480360381019061004d9190610391565b610088565b005b61006e600480360381019061006991906103e1565b610246565b60405161007f959493929190610444565b60405180910390f35b6040518060a001604052808473ffffffffffffffffffffffffffffffffffffffff1681526020018373ffffffffffffffffffffffffffffffffffffffff168152602001828152602001428152602001600115158152505f5f8473ffffffffffffffffffffffffffffffffffffffff1673ffffffffffffffffffffffffffffffffffffffff1681526020019081526020015f205f820151815f015f6101000a81548173ffffffffffffffffffffffffffffffffffffffff021916908373ffffffffffffffffffffffffffffffffffffffff1602179055506020820151816001015f6101000a81548173ffffffffffffffffffffffffffffffffffffffff021916908373ffffffffffffffffffffffffffffffffffffffff16021790555060408201518160020155606082015181600301556080820151816004015f6101000a81548160ff0219169083151502179055509050508173ffffffffffffffffffffffffffffffffffffffff168373ffffffffffffffffffffffffffffffffffffffff167f486643eb2532db63272fff79933743ed5e3ce1016e79a045edfc865da757ba9a8342604051610239929190610495565b60405180910390a3505050565b5f5f5f5f5f5f5f5f8873ffffffffffffffffffffffffffffffffffffffff1673ffffffffffffffffffffffffffffffffffffffff1681526020019081526020015f209050805f015f9054906101000a900473ffffffffffffffffffffffffffffffffffffffff16816001015f9054906101000a900473ffffffffffffffffffffffffffffffffffffffff1682600201548360030154846004015f9054906101000a900460ff16955095509550955095505091939590929450565b5f5ffd5b5f73ffffffffffffffffffffffffffffffffffffffff82169050919050565b5f61032d82610304565b9050919050565b61033d81610323565b8114610347575f5ffd5b50565b5f8135905061035881610334565b92915050565b5f819050919050565b6103708161035e565b811461037a575f5ffd5b50565b5f8135905061038b81610367565b92915050565b5f5f5f606084860312156103a8576103a7610300565b5b5f6103b58682870161034a565b93505060206103c68682870161034a565b92505060406103d78682870161037d565b9150509250925092565b5f602082840312156103f6576103f5610300565b5b5f6104038482850161034a565b91505092915050565b61041581610323565b82525050565b6104248161035e565b82525050565b5f8115159050919050565b61043e8161042a565b82525050565b5f60a0820190506104575f83018861040c565b610464602083018761040c565b610471604083018661041b565b61047e606083018561041b565b61048b6080830184610435565b9695505050505050565b5f6040820190506104a85f83018561041b565b6104b5602083018461041b565b939250505056fea26469706673582212200763d5c6f75819bd68090c2ac525958747b8013256bd4a155734d8e8e71a20e764736f6c634300081e0033","linkReferences":{}},"methodIdentifiers":{"getAlert(address)":"f5755765","recordBigTransfer(address,address,uint256)":"1ae3342c"},"id":22}