{"abi":[{"type":"constructor","inputs":[{"name":"_responseContract","type":"address","internalType":"address"}],"stateMutability":"nonpayable"},{"type":"function","name":"BIG_TRANSFER_THRESHOLD","inputs":[],"outputs":[{"name":"","type":"uint256","internalType":"uint256"}],"stateMutability":"view"},{"type":"function","name":"collect","inputs":[{"name":"from","type":"address","internalType":"address"},{"name":"to","type":"address","internalType":"address"},{"name":"amount","type":"uint256","internalType":"uint256"}],"outputs":[{"name":"","type":"tuple","internalType":"struct BigTransferTrap.TransferData","components":[{"name":"from","type":"address","internalType":"address"},{"name":"to","type":"address","internalType":"address"},{"name":"amount","type":"uint256","internalType":"uint256"},{"name":"blockNumber","type":"uint256","internalType":"uint256"}]}],"stateMutability":"view"},{"type":"function","name":"isShouldRespond","inputs":[{"name":"transfers","type":"tuple[]","internalType":"struct BigTransferTrap.TransferData[]","components":[{"name":"from","type":"address","internalType":"address"},{"name":"to","type":"address","internalType":"address"},{"name":"amount","type":"uint256","internalType":"uint256"},{"name":"blockNumber","type":"uint256","internalType":"uint256"}]}],"outputs":[{"name":"","type":"bool","internalType":"bool"}],"stateMutability":"pure"},{"type":"function","name":"respond","inputs":[{"name":"transfers","type":"tuple[]","internalType":"struct BigTransferTrap.TransferData[]","components":[{"name":"from","type":"address","internalType":"address"},{"name":"to","type":"address","internalType":"address"},{"name":"amount","type":"uint256","internalType":"uint256"},{"name":"blockNumber","type":"uint256","internalType":"uint256"}]}],"outputs":[],"stateMutability":"nonpayable"},{"type":"function","name":"responseContract","inputs":[],"outputs":[{"name":"","type":"address","internalType":"contract IBigTransferResponse"}],"stateMutability":"view"},{"type":"function","name":"shouldRespond","inputs":[{"name":"transfers","type":"tuple[]","internalType":"struct BigTransferTrap.TransferData[]","components":[{"name":"from","type":"address","internalType":"address"},{"name":"to","type":"address","internalType":"address"},{"name":"amount","type":"uint256","internalType":"uint256"},{"name":"blockNumber","type":"uint256","internalType":"uint256"}]}],"outputs":[{"name":"","type":"bool","internalType":"bool"}],"stateMutability":"pure"},{"type":"event","name":"BigTransferDetected","inputs":[{"name":"from","type":"address","indexed":true,"internalType":"address"},{"name":"to","type":"address","indexed":true,"internalType":"address"},{"name":"amount","type":"uint256","indexed":false,"internalType":"uint256"}],"anonymous":false}],"bytecode":{"object":"0x608060405234801561000f575f5ffd5b50604051610a54380380610a54833981810160405281019061003191906100d4565b805f5f6101000a81548173ffffffffffffffffffffffffffffffffffffffff021916908373ffffffffffffffffffffffffffffffffffffffff160217905550506100ff565b5f5ffd5b5f73ffffffffffffffffffffffffffffffffffffffff82169050919050565b5f6100a38261007a565b9050919050565b6100b381610099565b81146100bd575f5ffd5b50565b5f815190506100ce816100aa565b92915050565b5f602082840312156100e9576100e8610076565b5b5f6100f6848285016100c0565b91505092915050565b6109488061010c5f395ff3fe608060405234801561000f575f5ffd5b5060043610610060575f3560e01c80631d14866814610064578063619b1efc14610082578063be712129146100b2578063c49fbfea146100ce578063c8fea2fb146100fe578063e67589c81461012e575b5f5ffd5b61006c61014c565b604051610079919061052c565b60405180910390f35b61009c600480360381019061009791906105ae565b610159565b6040516100a99190610613565b60405180910390f35b6100cc60048036038101906100c791906105ae565b6101ca565b005b6100e860048036038101906100e391906105ae565b61042f565b6040516100f59190610613565b60405180910390f35b610118600480360381019061011391906106b0565b610442565b6040516101259190610771565b60405180910390f35b6101366104a0565b60405161014391906107e5565b60405180910390f35b683635c9adc5dea0000081565b5f5f838390500361016c575f90506101c4565b5f5f90505b838390508110156101bf57683635c9adc5dea00000848483818110610199576101986107fe565b5b90506080020160400135106101b25760019150506101c4565b8080600101915050610171565b505f90505b92915050565b5f828290501161020f576040517f08c379a000000000000000000000000000000000000000000000000000000000815260040161020690610885565b60405180910390fd5b5f5f90505b8282905081101561042a57683635c9adc5dea0000083838381811061023c5761023b6107fe565b5b905060800201604001351061041d5782828281811061025e5761025d6107fe565b5b905060800201602001602081019061027691906108a3565b73ffffffffffffffffffffffffffffffffffffffff1683838381811061029f5761029e6107fe565b5b9050608002015f0160208101906102b691906108a3565b73ffffffffffffffffffffffffffffffffffffffff167fa26770beb53c419c3b2db157bc4aa6632297ceefb72f5589ac3d058e50e071fb858585818110610300576102ff6107fe565b5b90506080020160400135604051610317919061052c565b60405180910390a35f5f9054906101000a900473ffffffffffffffffffffffffffffffffffffffff1673ffffffffffffffffffffffffffffffffffffffff16631ae3342c84848481811061036e5761036d6107fe565b5b9050608002015f01602081019061038591906108a3565b858585818110610398576103976107fe565b5b90506080020160200160208101906103b091906108a3565b8686868181106103c3576103c26107fe565b5b905060800201604001356040518463ffffffff1660e01b81526004016103eb939291906108dd565b5f604051808303815f87803b158015610402575f5ffd5b505af1158015610414573d5f5f3e3d5ffd5b5050505061042a565b8080600101915050610214565b505050565b5f61043a8383610159565b905092915050565b61044a6104c4565b60405180608001604052808573ffffffffffffffffffffffffffffffffffffffff1681526020018473ffffffffffffffffffffffffffffffffffffffff1681526020018381526020014381525090509392505050565b5f5f9054906101000a900473ffffffffffffffffffffffffffffffffffffffff1681565b60405180608001604052805f73ffffffffffffffffffffffffffffffffffffffff1681526020015f73ffffffffffffffffffffffffffffffffffffffff1681526020015f81526020015f81525090565b5f819050919050565b61052681610514565b82525050565b5f60208201905061053f5f83018461051d565b92915050565b5f5ffd5b5f5ffd5b5f5ffd5b5f5ffd5b5f5ffd5b5f5f83601f84011261056e5761056d61054d565b5b8235905067ffffffffffffffff81111561058b5761058a610551565b5b6020830191508360808202830111156105a7576105a6610555565b5b9250929050565b5f5f602083850312156105c4576105c3610545565b5b5f83013567ffffffffffffffff8111156105e1576105e0610549565b5b6105ed85828601610559565b92509250509250929050565b5f8115159050919050565b61060d816105f9565b82525050565b5f6020820190506106265f830184610604565b92915050565b5f73ffffffffffffffffffffffffffffffffffffffff82169050919050565b5f6106558261062c565b9050919050565b6106658161064b565b811461066f575f5ffd5b50565b5f813590506106808161065c565b92915050565b61068f81610514565b8114610699575f5ffd5b50565b5f813590506106aa81610686565b92915050565b5f5f5f606084860312156106c7576106c6610545565b5b5f6106d486828701610672565b93505060206106e586828701610672565b92505060406106f68682870161069c565b9150509250925092565b6107098161064b565b82525050565b61071881610514565b82525050565b608082015f8201516107325f850182610700565b5060208201516107456020850182610700565b506040820151610758604085018261070f565b50606082015161076b606085018261070f565b50505050565b5f6080820190506107845f83018461071e565b92915050565b5f819050919050565b5f6107ad6107a86107a38461062c565b61078a565b61062c565b9050919050565b5f6107be82610793565b9050919050565b5f6107cf826107b4565b9050919050565b6107df816107c5565b82525050565b5f6020820190506107f85f8301846107d6565b92915050565b7f4e487b71000000000000000000000000000000000000000000000000000000005f52603260045260245ffd5b5f82825260208201905092915050565b7f4e6f207472616e736665727300000000000000000000000000000000000000005f82015250565b5f61086f600c8361082b565b915061087a8261083b565b602082019050919050565b5f6020820190508181035f83015261089c81610863565b9050919050565b5f602082840312156108b8576108b7610545565b5b5f6108c584828501610672565b91505092915050565b6108d78161064b565b82525050565b5f6060820190506108f05f8301866108ce565b6108fd60208301856108ce565b61090a604083018461051d565b94935050505056fea26469706673582212206500d441f9e4cabdc68216634188a380ab9ca4435f308668fe34ff5ee22a621c64736f6c634300081e0033","linkReferences":{}},"methodIdentifiers":{"BIG_TRANSFER_THRESHOLD()":"1d148668","collect(address,address,uint256)":"c8fea2fb","isShouldRespond((address,address,uint256,uint256)[])":"c49fbfea","respond((address,address,uint256,uint256)[])":"be712129","responseContract()":"e67589c8","shouldRespond((address,address,uint256,uint256)[])":"619b1efc"},"id":23}