{"abi":[{"type":"function","name":"BIG_TRANSFER_THRESHOLD","inputs":[],"outputs":[{"name":"","type":"uint256","internalType":"uint256"}],"stateMutability":"view"},{"type":"function","name":"RESPONSE_CONTRACT","inputs":[],"outputs":[{"name":"","type":"address","internalType":"address"}],"stateMutability":"view"},{"type":"function","name":"collect","inputs":[],"outputs":[{"name":"","type":"bytes","internalType":"bytes"}],"stateMutability":"view"},{"type":"function","name":"shouldRespond","inputs":[{"name":"data","type":"bytes[]","internalType":"bytes[]"}],"outputs":[{"name":"","type":"bool","internalType":"bool"},{"name":"","type":"bytes","internalType":"bytes"}],"stateMutability":"pure"}],"bytecode":{"object":"0x6080604052348015600e575f5ffd5b5061059f8061001c5f395ff3fe608060405234801561000f575f5ffd5b506004361061004a575f3560e01c80631d1486681461004e57806344e6e4ce1461006c578063e52253811461009d578063f672f7a7146100bb575b5f5ffd5b6100566100d9565b6040516100639190610242565b60405180910390f35b610086600480360381019061008191906102c4565b6100e6565b604051610094929190610399565b60405180910390f35b6100a56101e0565b6040516100b291906103c7565b60405180910390f35b6100c3610212565b6040516100d09190610426565b60405180910390f35b683635c9adc5dea0000081565b5f60605f848490500361010c575f60405180602001604052805f815250915091506101d9565b5f84845f8181106101205761011f61043f565b5b90506020028101906101329190610478565b81019061013f9190610504565b5090505f8111156101c357600185855f81811061015f5761015e61043f565b5b90506020028101906101719190610478565b81818080601f0160208091040260200160405190810160405280939291908181526020018383808284375f81840152601f19601f820116905080830192505050505050509050905092509250506101d9565b5f60405180602001604052805f81525092509250505b9250929050565b6060683635c9adc5dea00000436040516020016101fe929190610542565b604051602081830303815290604052905090565b735eda60b7fa1ba597aeff9c43bd1e99e33b531d5f81565b5f819050919050565b61023c8161022a565b82525050565b5f6020820190506102555f830184610233565b92915050565b5f5ffd5b5f5ffd5b5f5ffd5b5f5ffd5b5f5ffd5b5f5f83601f84011261028457610283610263565b5b8235905067ffffffffffffffff8111156102a1576102a0610267565b5b6020830191508360208202830111156102bd576102bc61026b565b5b9250929050565b5f5f602083850312156102da576102d961025b565b5b5f83013567ffffffffffffffff8111156102f7576102f661025f565b5b6103038582860161026f565b92509250509250929050565b5f8115159050919050565b6103238161030f565b82525050565b5f81519050919050565b5f82825260208201905092915050565b8281835e5f83830152505050565b5f601f19601f8301169050919050565b5f61036b82610329565b6103758185610333565b9350610385818560208601610343565b61038e81610351565b840191505092915050565b5f6040820190506103ac5f83018561031a565b81810360208301526103be8184610361565b90509392505050565b5f6020820190508181035f8301526103df8184610361565b905092915050565b5f73ffffffffffffffffffffffffffffffffffffffff82169050919050565b5f610410826103e7565b9050919050565b61042081610406565b82525050565b5f6020820190506104395f830184610417565b92915050565b7f4e487b71000000000000000000000000000000000000000000000000000000005f52603260045260245ffd5b5f5ffd5b5f5ffd5b5f5ffd5b5f5f833560016020038436030381126104945761049361046c565b5b80840192508235915067ffffffffffffffff8211156104b6576104b5610470565b5b6020830192506001820236038313156104d2576104d1610474565b5b509250929050565b6104e38161022a565b81146104ed575f5ffd5b50565b5f813590506104fe816104da565b92915050565b5f5f6040838503121561051a5761051961025b565b5b5f610527858286016104f0565b9250506020610538858286016104f0565b9150509250929050565b5f6040820190506105555f830185610233565b6105626020830184610233565b939250505056fea2646970667358221220a1545c911c1313f49d4970ae71ee46e368e8ad4e5bc38070f3bf4e9527701b8f64736f6c634300081e0033","linkReferences":{}},"methodIdentifiers":{"BIG_TRANSFER_THRESHOLD()":"1d148668","RESPONSE_CONTRACT()":"f672f7a7","collect()":"e5225381","shouldRespond(bytes[])":"44e6e4ce"},"id":23}